:020000040800F2
:1000000048040020450100086D060008230600088A
:1000100069060008C5010008090B0008000000007F
:100020000000000000000000000000003907000888
:100030004102000800000000F5060008C908000899
:100040005F0100085F0100085F0100085F01000810
:100050005F0100085F010008450200085F01000819
:100060005F0100085F0100085F0100085F010008F0
:100070005F0100085F0100085F0100085F010008E0
:100080005F0100085F0100085F0100085F010008D0
:100090005F0100085F0100085F0100085F010008C0
:1000A0005F0100085F0100085F0100085F010008B0
:1000B0002D0900085F0100085F0100085F010008CA
:1000C0005F0100085F0100085F0100085F01000890
:1000D0005F010008BF0A00085F0100085F01000817
:1000E0005F0100085F0100085F0100085F01000870
:1000F0005F0100085F0100085F0100085F01000860
:100100005F0100085F0100085F0100085F0100084F
:100110005F0100085F0100085F0100085F0100083F
:100120005F0100085F0100085F0100085F0100082F
:10013000DFF80CD000F018F800480047710B0008F9
:10014000480400200648804706480047FEE7FEE7CF
:10015000FEE7FEE7FEE7FEE7FEE7FEE7FEE7FEE777
:10016000CD08000831010008064C074D06E0E068A4
:1001700040F0010394E8070098471034AC42F6D3EE
:10018000FFF7DAFF880B0008A80B000810B54FF442
:100190008071422000F088F910BD000010B50022E7
:1001A0004FF48071014800F037FA10BD000C014097
:1001B00010B501221102024800F02EFA10BD000015
:1001C000000C014000BFFEE71FB50121042000F034
:1001D000A3FA0121084600F09FFA28208DF80F00AD
:1001E0000120ADF80C0003208DF80E0003A9134880
:1001F00000F0CEF80021084600F0AAF80120019096
:100200008DF80A0000208DF8080010208DF80900F4
:1002100001A800F053F84FF4A06000F061FA062046
:100220008DF8000001208DF803008DF801008DF895
:100230000200684600F01CFA1FBD000000080140E3
:100240007047000010B5012000F024F8012818D1F3
:10025000FFF7AEFFC82000F068FCFFF79FFF0948DA
:10026000006880F00100074908600846006801281E
:1002700002D100F0E3F901E000F0D6F9012000F02E
:1002800003F810BD0000002001490860704700001D
:1002900014040140014600200022074B1B6803EABA
:1002A0000102054B14331B680B4013B10AB1012046
:1002B00000E00020704700000004014000212349B5
:1002C0008279002A3AD00A46126803689A430B469C
:1002D0001A600A1D126803689A430B1D1A6002799E
:1002E00011440A6803681A430A60184A08321268FF
:1002F00003689A43154B08331A601A1D1268036885
:100300009A43124B0C331A604279102A0ED11A1FED
:10031000126803681A430D4B08331A601A1D1268DD
:1003200003681A43094B0C331A600DE00749427900
:1003300011440A6803681A430A6005E0027911440F
:100340000A6803689A430A6070470000000401408D
:1003500030B500228B071C0F0F2303FA04F20B4B5E
:100360008C1053F824309343084C8D1044F82530FA
:1003700023468C1053F824308C07240F00FA04F421
:100380002343024C8D1044F8253030BD0800014055
:100390002DE9F0410246002500260020002300241C
:1003A000002791F803C00CF00F0591F803C00CF082
:1003B000100CBCF1000F03D091F802C04CEA050507
:1003C00091F800C0BCF1000F31D0146800202BE080
:1003D0004FF0010C0CFA00F3B1F800C00CEA030670
:1003E0009E4220D183004FF00F0C0CFA03F7BC4360
:1003F00005FA03FC4CEA040491F803C0BCF1280F91
:1004000006D14FF0010C0CFA00FCC2F814C00AE04F
:1004100091F803C0BCF1480F05D14FF0010C0CFA64
:1004200000FCC2F810C0401C0828D1D31460B1F8F9
:1004300000C0BCF1FF0F34DD546800202EE000F155
:10044000080C4FF0010808FA0CF3B1F800C00CEAF0
:1004500003069E4221D183004FF00F0C0CFA03F7E4
:10046000BC4305FA03FC4CEA040491F803C0BCF158
:10047000280F05D100F1080C08FA0CF8C2F8148016
:1004800091F803C0BCF1480F07D100F1080C4FF000
:10049000010808FA0CF8C2F81080401C0828CED3D6
:1004A0005460BDE8F08100000FB41CB5044606A8F6
:1004B0000190A4F14100072828D2DFE800F00409E8
:1004C0000E13181D22000121042000F025F91DE063
:1004D0000121082000F020F918E00121102000F08F
:1004E0001BF913E00121202000F016F90EE0012194
:1004F000402000F011F909E00121802000F00CF902
:1005000004E00121080200F007F900BF00BF0198D4
:1005100010F8041B0190C8B28DF803009DF8030089
:10052000182816D007DC68B104280CD010280ED08B
:1005300014280FD10AE01C280AD0282804D0482803
:1005400008D102E00AE009E008E007E006E005E083
:1005500004E003E010208DF8030000BF00BFBDF8E9
:100560001400ADF80000019810F8041B0190C8B207
:100570008DF802009DF80200012804D0022803D063
:10058000032803D101E005E004E003E003208DF837
:10059000020000BF00BF00200190A4F14100072825
:1005A00028D2DFE800F004090E13181D2200694666
:1005B0001248FFF7EDFE1DE069461148FFF7E8FE1F
:1005C00018E069460F48FFF7E3FE13E069460E485E
:1005D000FFF7DEFE0EE069460C48FFF7D9FE09E0A2
:1005E00069460B48FFF7D4FE04E069460948FFF767
:1005F000CFFE00BF00BF1CBC5DF814FB000801402B
:10060000000C01400010014000140140001801409E
:10061000001C0140002001400AB1016100E041617D
:10062000704700BFFEE7000010B5012220210248FC
:10063000FFF7F2FF10BD0000000C014010B50022D2
:1006400020210248FFF7E8FF10BD0000000C014028
:1006500010B520214220FFF727FF0323102220217D
:100660004520FFF721FF10BD00BFFEE770470000E7
:1006700070B5002100230F22C47804B3154C246800
:1006800004F4E064C4F5E064210AC1F10403CA4043
:10069000447804FA03F184781440214309010E4C94
:1006A0000678A155047804F01F050124AC400578B4
:1006B0006D11AD0005F1E025C5F8004109E00478B1
:1006C00004F01F050124AC40044D0678761145F86E
:1006D000264070BD0CED00E000E400E080E100E0A9
:1006E00002490143024A1160704700000000FA0508
:1006F0000CED00E07047000029B1064AD2690243C0
:10070000044BDA6104E0034AD2698243014BDA61A7
:10071000704700000010024029B1064A9269024366
:10072000044B9A6104E0034A92698243014B9A6147
:100730007047000000100240704710B500F002F84A
:1007400010BD00000CB500200190009033480068F7
:1007500040F480303149086000BF3048006800F440
:10076000003000900198401C0190009818B9019841
:10077000B0F5A06FF1D12948006800F4003010B145
:100780000120009001E0002000900098012843D152
:100790002348006840F010002149086008460068BE
:1007A00020F0030008600846006840F0020008607E
:1007B0001A48406819494860084640684860084639
:1007C000406840F4806048600846406820F47C102F
:1007D00048600846406840F4E810486008460068F1
:1007E00040F08070086000BF0C48006800F00070A6
:1007F0000028F9D00948406820F003000749486004
:100800000846406840F00200486000BF0348406866
:1008100000F00C000828F9D10CBD000000100240C7
:100820000020024010B540F22551224800F05AF94C
:1008300001283DD11F4800F062F9C4B21E4800787B
:1008400058B9402C2ED11D48007858BB01201A49B8
:10085000087000201A49087024E017480078012821
:100860000FD10D2C03D10220134908701AE015484E
:1008700013490978445412480078401C1049087004
:1008800010E00D48007802280CD10A2C0AD1002073
:100890000949087001200949087000200949084ADF
:1008A0001278885440F22551024800F00CF900BF3C
:1008B00010BD0000003801400F0000200C00002097
:1008C00010000020140000207047000010B51348ED
:1008D000006840F00100114908600846406810496E
:1008E00008400E494860084600680E4908400B4918
:1008F00008600846006820F48020086008464068C8
:1009000020F4FE0048604FF41F008860FFF715FFD9
:100910004FF000600449086010BD00000010024064
:100920000000FFF8FFFFF6FE08ED00E010B5012122
:10093000880700F016F8012803D10121800700F094
:1009400001F810BDCA430282704721B1028842F00B
:100950000102028004E002884FF6FE731A40028012
:10096000704730B50246002000230024158A05EAAE
:100970000103958905EA010413B10CB1012000E0DF
:10098000002030BD1AB183890B43838102E0838943
:100990008B438381704701894FF6F87211400181C2
:1009A00070470000002202881D4B98420ED01D4B5C
:1009B00098420BD0B0F1804F08D01B4B984205D025
:1009C0001A4B984202D01A4B984204D14FF68F73BB
:1009D0001A404B881A43174B984207D0164B98423F
:1009E00004D04FF6FF431A40CB881A4302808B880D
:1009F00083850B8803850A4B98420BD0094B98429C
:100A000008D00E4B984205D00D4B984202D00D4BAA
:100A1000984201D10B7A038601238382704700003C
:100A2000002C014000340140000400400008004058
:100A3000000C004000100040001400400040014045
:100A400000440140004801401FB501210846FFF75E
:100A500053FE4FF08040FFF79EFF0020ADF80A00E4
:100A6000ADF8060042F20F70ADF8080041F61F40E5
:100A7000ADF8040000208DF80C0001A94FF0804073
:100A8000FFF790FF012211469007FFF77BFF4FF41D
:100A9000A060FFF725FE1C208DF8000001208DF8D6
:100AA000030002208DF8010001208DF80200684645
:100AB000FFF7DEFD01218807FFF747FF1FBD10B5D7
:100AC000FFF7B0FE10BD10B50022002340F66A14F7
:100AD000A14200D100BF0A1201249440A3B2DC431A
:100AE000048010BD02460020B1F5007F00D100BF98
:100AF00013880B400BB1012000E000207047014635
:100B00008888C0F30800704700BFFEE702E008C80D
:100B1000121F08C1002AFAD170477047002001E077
:100B200001C1121F002AFBD1704700B5034603E044
:100B30004FF47A7000F005F8181EA3F10103F7D105
:100B400000BD00EBC001C9004FF0E022516100215F
:100B500091610521116100BF4FF0E021096901F4A5
:100B600080310029F8D004214FF0E0221161704754
:100B7000FFF76AFFFFF76CFDFFF708FBFFF724FBA9
:100B8000FFF752FD00BFFEE7A80B000800000020A1
:100B9000140000000C0B0008BC0B0008140000201F
:100BA000340400001C0B00080000000000000000DE
:0C0BB00000000000000000000000000039
:0400000508000145A9
:00000001FF
